:020000021000EC
:10F000004BC0000066C0000064C0000062C0000089
:10F0100060C000005EC000005CC000005AC000007C
:10F0200058C0000056C00000A4C4000052C0000038
:10F0300050C000004EC000004CC000004AC000009C
:10F0400048C0000046C0000044C0000042C00000AC
:10F0500040C000003EC000003CC000003AC00000BC
:10F0600038C0000036C0000034C0000032C00000CC
:10F0700030C000002EC000002CC000002AC00000DC
:10F0800028C0000026C0000024C0000022C00000EC
:10F0900020C000001EC0000011241FBECFEFD0E230
:10F0A000DEBFCDBF11E0A0E0B1E0E4E9FEEF01E09A
:10F0B0000BBF02C007900D92AC38B107D9F711E031
:10F0C000ACE8B1E001C01D92AD39B107E1F72FD333
:10F0D000DFC696CF84E08093E9000DC08091E80000
:10F0E0008B778093E80003C08EB3882359F080911A
:10F0F000E80082FFF9CF8091E80085FFEFCF809193
:10F10000F100089580E0089593E09093E9009091D4
:10F11000E80095FD0DC09091E8009E779093E8007F
:10F1200003C09EB3992331F09091E80090FFF9CF8E
:10F130008093F100089584B7877F84BF88E10FB67C
:10F14000F89480936000109260000FBE90E080E819
:10F150000FB6F89480936100909361000FBE81E038
:10F1600085BF82E085BFEFC382E061EC42E071D3EE
:10F1700083E061E842E16DD384E060E842E169C385
:10F18000809196018032B1F0813239F580919501FC
:10F19000813A19F58091E800877F8093E80088E044
:10F1A00091E067E070E0B2D58091E8008B778093C2
:10F1B000E800089580919501813279F48091E8000A
:10F1C000877F8093E80088E091E067E070E0F9D500
:10F1D0008091E8008E778093E80008952F923F9207
:10F1E0005F926F927F928F929F92AF92BF92CF92D7
:10F1F000DF92EF92FF920F931F93DF93CF930F92C3
:10F20000CDB7DEB784E08093E9008091E80082FF0B
:10F210007BC210928C015EDF182F8C3409F421C25E
:10F22000803509F41EC2843529F0853429F4109202
:10F230000F0117C24FDF15C2843711F484E448C0B0
:10F24000813611F489E536C28134F1F443DF382F79
:10F25000330F20E079010027F7FC0095102FE09292
:10F260008F01F0929001009391011093920132DF8F
:10F2700090E0880F991FAA2797FDA095BA2F8E2995
:10F280009F29A02BB12BE5C1803711F483E512C271
:10F29000833559F400E011E0D8018D918D0134DF00
:10F2A000B1E007301B07C1F706C2863521F481E3C0
:10F2B0002BDF80E3FFC1833731F482E825DF87E964
:10F2C00023DF8EE1F7C1823631F489E51DDF81E06D
:10F2D0001BDF80E0EFC1853621F580E090E0DC01A6
:10F2E00033E025E0FC01A0935B0030935700E895E4
:10F2F00007B600FCFDCFFC01A0935B0020935700F4
:10F30000E89507B600FCFDCF8F5F9E4FAF4FBF4F14
:10F310008F3EE0EF9E07E1E0AE07E0E0BE0711F7A9
:10F32000A0C18C3651F4D6DE809599E0E1E0F0E0A2
:10F33000082E90935700E89594C1823719F4E1E0C4
:10F34000F0E00EC0863419F4E0E0F0E009C08E343D
:10F3500019F4E3E0F0E004C0813539F4E2E0F0E0D4
:10F3600089E0809357008491A5C18334A1F4E09093
:10F370008F01F09090010091910110919201AADE0D
:10F3800090E021E00C01F70100935B00209357000F
:10F39000E895112466C18336E1F4E0908F01F09086
:10F3A0009001009191011091920181E090E0A0E024
:10F3B000B0E0E82AF92A0A2B1B2B8CDE90E021E032
:10F3C0000C01F70100935B0020935700E89511248E
:10F3D00035C18D3699F480918F0190919001A09163
:10F3E0009101B091920125E0FC01A0935B00209374
:10F3F0005700E89507B600FCFDCF33C1823419F001
:10F40000873609F0F7C066DEE82E64DE082F62DE7C
:10F41000982E8554823008F04CC13E2D20E0202EDD
:10F420003324222A332A173609F058C081E1809309
:10F430005700E89510E001E04CC020918F01309119
:10F4400090014091910150919201992D963419F5B6
:10F45000812F90E0A0E0B0E0822B932BA42BB52B62
:10F46000ABBFFC01879150DE112399F080918F0191
:10F4700090919001A0919101B09192010296A11DED
:10F48000B11D80938F0190939001A0939101B0934F
:10F49000920110271BC0DA01C901B695A79597956F
:10F4A0008795E0D431DE80918F0190919001A091F9
:10F4B0009101B09192010296A11DB11D80938F011F
:10F4C00090939001A0939101B09392010894210828
:10F4D00031082114310409F0B0CFEDC0A0908F01A4
:10F4E000B0909001C0909101D0909201A92DA634C6
:10F4F00009F069C083E0F501C0925B00809357007A
:10F50000E89507B600FCFDCF5EC0B92DB63491F585
:10F51000222361F1E0908F01F09090010091910120
:10F5200010919201D7DD782E6624282D30E026290F
:10F5300037290901F70100935B0050925700E895C5
:10F54000112480918F0190919001A0919101B0912F
:10F5500092010296A11DB11D80938F01909390019D
:10F56000A0939101B093920120E029C0B3DD882ED1
:10F5700021E025C0E0908F01F09090010091910171
:10F580001091920116950795F794E7942983A2DDCF
:10F59000682FC7016FD480918F0190919001A09145
:10F5A0009101B09192010296A11DB11D80938F012E
:10F5B00090939001A0939101B093920129810894B6
:10F5C0002108310804C0882420E0552453942114D4
:10F5D000310409F09ACFE92DE63409F042C085E004
:10F5E000F501C0925B0080935700E89507B600FCD8
:10F5F000FDCF37C0823581F480918F0190919001C9
:10F60000A0919101B0919201ABBFFC0107911691BD
:10F61000812F7ADD802F4EC0843429F5E0908F0150
:10F62000F09090010091910110919201169507952B
:10F63000F794E7944FDD682FC7011CD480918F01A8
:10F6400090919001A0919101B09192010296A11D1B
:10F65000B11D80938F0190939001A0939101B0937D
:10F6600092018DE027C0843611F580918F01909131
:10F670009001A0919101B0919201B695A7959795AF
:10F680008795F0D341DD80918F0190919001A091F9
:10F690009101B09192010296A11DB11D80938F013D
:10F6A00090939001A0939101B093920104C08B318B
:10F6B00011F08FE329DD83E08093E9009091E80069
:10F6C0008091E8008E778093E80095FF04C010C019
:10F6D0008EB38823C9F08091E80080FFF9CF809134
:10F6E000E8008E778093E80003C08EB3882361F032
:10F6F0008091E80080FFF9CF84E08093E900809159
:10F70000E8008B778093E8000F90CF91DF911F91F5
:10F710000F91FF90EF90DF90CF90BF90AF909F90B0
:10F720008F907F906F905F903F902F900895EF9211
:10F73000FF920F931F93DF93CF930F92CDB7DEB756
:10F7400084B714BE9091600098619093600010920D
:10F75000600010928C0190E0FC01E270F07081FD7D
:10F760000BC0859194912FEF8F3F920729F0E09184
:10F770008D01F0918E010995DEDC689A709A78947B
:10F7800081E010E000E0E0E0F0E0E590F49025C0DA
:10F79000898324DD55D30F5F8981002311F4180F6D
:10F7A000709A011709F470981F3F59F0112351F412
:10F7B000813041F080918C018F5F80938C0181E0DA
:10F7C00001C08FEF90918C01953038F09FEFE916D2
:10F7D0009FEFF90611F010920F0190910F019923FC
:10F7E000B9F68091E00081608093E0002CE088E130
:10F7F00090E00FB6F894A895809360000FBE209318
:10F800006000FFCF923049F0933061F09130C1F049
:10F8100020E030E080E090E017C02EE330E082E2AC
:10F8200091E012C0882331F42091600130E080E63D
:10F8300091E00AC02091640130E084E691E004C0C8
:10F8400022E130E080E191E0FA0191838083C901F7
:10F8500008958093E900EBEEF0E080818160808381
:10F86000EDEEF0E010826093EC0040838091EE00BA
:10F87000881F8827881F08958091950187FF11C0F0
:10F8800003C08EB38823B1F08091E80082FFF9CFE6
:10F890008091E8008B778093E80008958EB38823E9
:10F8A00049F08091E80080FFF9CF8091E8008E77E1
:10F8B0008093E800089550D057D08091D800982FB9
:10F8C0009F779093D80080688093D80084E189BDA9
:10F8D00089B5826089BD09B400FEFDCF8091D80052
:10F8E0008F7D8093D8008091D70080688093D70067
:10F8F0001EBA109293018091E0008B7F8093E0000C
:10F900008091D80081608093D80080E060E042E080
:10F91000A0DF8091E1008E7F8093E1008091E20082
:10F9200081608093E2008091E20088608093E20031
:10F930008091E0008E7F8093E0008091D80080610C
:10F940008093D8000895E7EDF0E0808181608083A6
:10F9500081E080939401AFCFE8EDF0E080818C7F6F
:10F9600080831092E20008951092DA001092E10074
:10F9700008951F920F920FB60F920BB60F9211249B
:10F980002F933F934F935F936F937F938F939F93A7
:10F99000AF93BF93EF93FF938091DA0080FF13C082
:10F9A0008091D80080FF0FC08091DA008E7F809315
:10F9B000DA008091D90080FF04C081E08EBBA5D120
:10F9C00002C01EBAA2D18091E10080FF1CC08091CC
:10F9D000E20080FF18C08091E1008E7F8093E100FB
:10F9E0008091E2008E7F8093E2008091E20080614E
:10F9F0008093E2008091D80080628093D80019BC87
:10FA000085E08EBB82D18091E10084FF2DC0809182
:10FA1000E20084FF29C084E189BD89B5826089BD87
:10FA200009B400FEFDCF8091D8008F7D8093D8006F
:10FA30008091E1008F7E8093E1008091E2008F7ED3
:10FA40008093E2008091E20081608093E2008091E7
:10FA50009301882321F48091E30087FF02C084E0B2
:10FA600001C081E08EBB51D18091E10083FF21C0B4
:10FA70008091E20083FF1DC08091E100877F809329
:10FA8000E10082E08EBB109293018091E1008E7FB5
:10FA90008093E1008091E2008E7F8093E20080916C
:10FAA000E20080618093E20080E060E042E0D1DE2D
:10FAB0002CD18091E10082FF0AC08091E20082FF98
:10FAC00006C08091E1008B7F8093E1001ED1FF9101
:10FAD000EF91BF91AF919F918F917F916F915F91C6
:10FAE0004F913F912F910F900BBE0F900FBE0F9033
:10FAF0001F9018950F931F93DF93CF9300D0CDB72E
:10FB0000DEB7E5E9F1E08091F100819381E0ED3924
:10FB1000F807C9F78091950190919601953009F405
:10FB20006BC0963040F4913061F1913070F09330B9
:10FB300009F0D5C026C0983009F4A3C0993009F463
:10FB4000B2C0963009F0CBC07CC0803809F4C8C080
:10FB5000823809F0C4C08091990187708093E900D0
:10FB60009091EB001092E9008091E800877F8093EC
:10FB7000E80081E095FF80E08093F1001092F100B1
:10FB80008BC0882319F0823009F0A9C08F718230B0
:10FB900009F0A6C080919701882341F52091990131
:10FBA000277009F49DC02093E9008091EB0080FF4D
:10FBB0001DC080919601833021F48091EB0080621A
:10FBC00013C08091EB0080618093EB0081E090E0B6
:10FBD00002C0880F991F2A95E2F78093EA001092DD
:10FBE000EA008091EB0088608093EB001092E900BE
:10FBF0008091E800877F53C0882309F070C010917E
:10FC000097011F770FB7F8948091E800877F809362
:10FC1000E80032DE8091E80080FFFCCF112311F074
:10FC200083E001C082E08EBB8091E3008078812B6D
:10FC30008093E3008091E30080688093E3000FBF2E
:10FC40004FC08058823008F04AC08091970190914F
:10FC5000980160919901AE014F5F5F4FD3DDBC0108
:10FC6000009709F43DC08091E800877F8093E80009
:10FC700089819A814BD08091E8008B778093E8004E
:10FC80002FC0803861F58091E800877F8093E8007D
:10FC9000809193018093F1008091E8008E778093AA
:10FCA000E800EADD1DC08823D1F4909197019230DD
:10FCB000B8F48091E800877F8093E80090939301E7
:10FCC000DBDD80919301882321F48091E30087FF9D
:10FCD00002C084E001C081E08EBB46DA01C050DA88
:10FCE0008091E80083FF0AC08091EB0080628093DE
:10FCF000EB008091E800877F8093E8000F900F90E1
:10FD0000CF91DF911F910F9108950895282F392FDA
:10FD1000F90180919B0190919C018617970718F437
:10FD2000BC0120E035C061157105D9F78091E8006C
:10FD30008E778093E800F5CF8EB38823F1F185307C
:10FD4000C1F18091E80083FD36C08091E80082FD1A
:10FD50002AC08091E80080FF1BC08091F200909142
:10FD6000F30006C021912093F1006150704001968C
:10FD70006115710519F088309105A0F321E08830F4
:10FD8000910509F020E08091E8008E778093E800EB
:10FD90006115710589F6222379F605C08EB3882393
:10FDA00061F0853061F08091E80082FFF7CF80E05C
:10FDB000089583E0089581E0089582E0089583E046
:10FDC00008956115710529F51FC02EB32223A1F1F5
:10FDD000253071F12091E80023FD2CC02091E8002E
:10FDE00022FFF3CFE82FF92F07C08091F100819314
:10FDF000CF016150704041F0CF012091F20030916D
:10FE0000F3002115310589F72091E8002B77209325
:10FE1000E80061157105C9F605C08EB3882361F04D
:10FE2000853061F08091E80080FFF7CF80E0089591
:10FE300083E0089581E0089582E0089583E00895C5
:10FE40001F938EB3882361F01091E9001770109210
:10FE5000E9008091E80083FF01C04CDE1093E900C7
:10FE60001F910895F999FECF92BD81BDF89A992707
:10FE700080B50895262FF999FECF1FBA92BD81BD96
:10FE800020BD0FB6F894FA9AF99A0FBE019608951C
:04FE9000F894FFCF14
:10FE94004C55464143444300000000000000080163
:10FEA40012011001020000089A2301000100000160
:10FEB400000109023E000201008032090400000131
:10FEC4000202010005240010010424020405240692
:10FED40000010705820308000209040100020A0068
:10FEE400000007050402100000070583021000004B
:10FEF4000403090426034100560052002000430075
:10FF040044004300200042006F006F0074006C0046
:0CFF14006F0061006400650072000000D6
:040000031000F000F9
:00000001FF
