:10F000004BC0000064C0000062C0000060C000008F
:10F010005EC000005CC000005AC0000058C0000084
:10F0200056C0000054C0000032C4000050C00000B0
:10F030004EC000004CC000004AC0000048C00000A4
:10F0400046C0000044C0000042C0000040C00000B4
:10F050003EC000003CC000003AC0000038C00000C4
:10F0600036C0000034C0000032C0000030C00000D4
:10F070002EC000002CC000002AC0000028C00000E4
:10F0800026C0000024C0000022C0000020C00000F4
:10F090001EC000001CC0000011241FBECFEFD0E135
:10F0A000DEBFCDBF11E0A0E0B1E0EEE9FDEF02C0B0
:10F0B00005900D92AC38B107D9F711E0ACE8B1E09A
:10F0C00001C01D92AE39B107E1F7E3D266C698CF11
:10F0D00084E08093E9000DC08091E8008B778093F5
:10F0E000E80003C08EB3882359F08091E80082FFC6
:10F0F000F9CF8091E80085FFEFCF8091F10008956E
:10F1000080E0089593E09093E9009091E80095FFE6
:10F1100003C08093F10008959091E8009E7790934A
:10F12000E80003C09EB3992329F09091E80090FF76
:10F13000F9CFEFCF089580918C0190918D01A0912E
:10F140008E01B0918F01835D9D4FAF4FBF4F809374
:10F150008C0190938D01A0938E01B0938F018091CB
:10F160008E0190918F0190FD809590918C01981760
:10F1700010F480E801C080E08EB9089542E061ECAF
:10F1800082E0F5D242E161E883E0F1D242E160E859
:10F1900084E0EDC2809197018032A1F0813229F59F
:10F1A00080919601813A09F58091E800877F8093EC
:10F1B000E80067E070E081E091E032D58091E800FE
:10F1C0008B7711C080919601813279F48091E800AB
:10F1D000877F8093E80067E070E081E091E076D57A
:10F1E0008091E8008E778093E80008956F927F9277
:10F1F0008F929F92AF92BF92CF92DF92EF92FF9247
:10F200000F931F93CF93DF9384E08093E900809165
:10F21000E80082FF2FC25CDFD82F853419F41092EA
:10F22000000103C0843521F453DF8DE06BDFF9C1A9
:10F230008C34D9F3803509F4F8CF843711F484E4A1
:10F2400080C0813611F489E5F1CF8134E1F440DFEB
:10F25000182F110F00E0C801AA2797FDA095BA2F1B
:10F260008093900190939101A0939201B0939301A8
:10F270002FDF90E0880F991F802B912BAA2797FDF5
:10F28000A095BA2F72C1803711F483E5CFCF8335B3
:10F2900049F4C4E8D1E0899135DF21E0CB38D207C9
:10F2A000D1F7BFC1863521F481E32CDF80E3BECFE7
:10F2B000833731F482E826DF86E924DF8EE1B6CF9A
:10F2C0008536B1F4E0E0F0E083E095E0809357000C
:10F2D000E89507B600FCFDCF90935700E89507B678
:10F2E00000FCFDCFF395E11520EFF20779F79DCFF4
:10F2F0008C3651F4EDDE809599E0E1E0F0E0082EE7
:10F3000090935700E89591CF823719F4E1E0F0E04F
:10F310000EC0863419F4E0E0F0E009C08E3419F430
:10F32000E3E0F0E004C0813539F4E2E0F0E089E0A8
:10F330008093570084917ACF823631F489E5E2DEFA
:10F3400081E0E0DE80E072CF823419F0873609F088
:10F35000DCC0BEDEE82EBCDEF82EBADEC82F855437
:10F36000823010F08FE362CF1E2D00E00F29D736D8
:10F3700009F051C081E180935700E895D0E0FF2467
:10F38000F39444C0C634F1F4E0919001F0919101FE
:10F39000ED2B8491B7DEDD2399F08091900190915F
:10F3A0009101A0919201B09193010296A11DB11D0E
:10F3B0008093900190939101A0939201B093930157
:10F3C000DF2522C08091900190919101A09192013E
:10F3D000B0919301B695A79597958795C8D492DE7D
:10F3E000409190015091910160919201709193012F
:10F3F0004E5F5F4F6F4F7F4F40939001509391014D
:10F400006093920170939301015011090115110548
:10F4100009F0B8CF06C1C0909001D0909101E09062
:10F420009201F0909301C63409F05BC083E0F601CD
:10F4300080935700E89507B600FCFDCF52C0C63454
:10F4400051F5DD2321F1609090017090910140DE33
:10F45000982E812CC4018A29F3010C01B092570027
:10F46000E895112440919001509191016091920191
:10F47000709193014E5F5F4F6F4F7F4F40939001AC
:10F4800050939101609392017093930102C020DE2A
:10F49000A82EDB2523C01CDE682F8091900190915F
:10F4A0009101A0919201B0919301B695A79597957E
:10F4B000879565D44091900150919101609192019E
:10F4C000709193014E5F5F4F6F4F7F4F409390015C
:10F4D000509391016093920170939301015011092F
:10F4E00004C0A12CD0E0BB24B3940115110509F090
:10F4F000A6CFC63409F099CE85E0F6018093570077
:10F50000E89507B600FCFDCF90CE833471F4C0912E
:10F510009001D0919101DCDD90E021E0FE010C0131
:10F5200020935700E895112480CE833639F58091D9
:10F53000900190919101A0919201B091930181600D
:10F54000EC01C6DD90E021E0FE010C0120935700A4
:10F55000E89511248091900190919101A0919201E0
:10F56000B09193010296A11DB11D809390019093DB
:10F570009101A0939201B093930157CE8D3661F41F
:10F58000E0919001F091910185E080935700E8951A
:10F5900007B600FCFDCF49CE823551F4E0919001D1
:10F5A000F0919101C591D4918D2FACDD8C2F3ECE81
:10F5B000843481F48DDD682F8091900190919101C8
:10F5C000A0919201B0919301B695A79597958795D3
:10F5D000D6D3C0CF843611F58091900190919101DE
:10F5E000A0919201B0919301B695A79597958795B3
:10F5F000BED388DD8091900190919101A0919201FC
:10F60000B09193010296A11DB11D8093900190933A
:10F610009101A0939201B093930103C08B3109F043
:10F62000A1CE83E08093E9009091E8008091E8000A
:10F630008E778093E80095FD11C08091E80080FDF1
:10F6400004C08EB38111F9CF15C08091E8008E7788
:10F650008093E80003C08EB3882361F08091E800B6
:10F6600080FFF9CF84E08093E9008091E8008B77F8
:10F670008093E800DF91CF911F910F91FF90EF9061
:10F68000DF90CF90BF90AF909F908F907F906F90C2
:10F69000089584B7877F84BF88E10FB6F89480937C
:10F6A0006000109260000FBE1DB8629B02C00C94F7
:10F6B00000006F9A549A5C9A689A709A3A9A429AA1
:10F6C0003E9A469A90E080E80FB6F89480936100E5
:10F6D000909361000FBE81E085BF82E085BFC1D0FD
:10F6E000789403C028DD82DD31D38091000181113F
:10F6F000F9CF8091E00081608093E0002CE088E108
:10F7000090E00FB6F894A895809360000FBE209308
:10F710006000FFCF292F30E033272230310559F028
:10F720002330310569F021303105C1F020E030E0AF
:10F7300080E090E017C02EE330E084E391E012C057
:10F74000811106C02091300130E080E391E00AC0D1
:10F750002091080130E088E091E004C022E130E02F
:10F7600082E791E0FA0191838083C9010895809333
:10F77000E900EBEEF0E0808181608083EDEEF0E067
:10F7800010826093EC0040838091EE00881F8827F0
:10F79000881F08958091960187FD05C08091E8003B
:10F7A00080FF0DC010C08091E80082FD04C08EB3C0
:10F7B0008111F9CF08958091E8008B7707C08EB34F
:10F7C0008111ECCF08958091E8008E778093E80056
:10F7D000089550D057D08091D800982F9F7790935C
:10F7E000D80080688093D80088E189BD89B582609F
:10F7F00089BD09B400FEFDCF8091D8008F7D809334
:10F80000D8008091D70080688093D7001EBA1092EC
:10F8100094018091E0008B7F8093E0008091D8007C
:10F8200081608093D80042E060E080E0A0DF8091BA
:10F83000E1008E7F8093E1008091E20081608093FF
:10F84000E2008091E20088608093E2008091E00015
:10F850008E7F8093E0008091D80080618093D800F3
:10F860000895E7EDF0E080818160808381E08093FE
:10F870009501AFCFE8EDF0E080818C7F808310921E
:10F88000E20008951092DA001092E10008951F92AC
:10F890000F920FB60F9211242F933F934F935F93C4
:10F8A0006F937F938F939F93AF93BF93EF93FF9348
:10F8B0008091DA0080FF13C08091D80080FF0FC0D4
:10F8C0008091DA008E7F8093DA008091D90080FFEA
:10F8D00004C081E08EBBA3D102C01EBAA0D180912A
:10F8E000E10080FF1CC08091E20080FF18C0809181
:10F8F000E1008E7F8093E1008091E2008E7F809313
:10F90000E2008091E20080618093E2008091D80063
:10F9100080628093D80019BC85E08EBB80D1809135
:10F92000E10084FF2DC08091E20084FF29C088E1BE
:10F9300089BD89B5826089BD09B400FEFDCF809183
:10F94000D8008F7D8093D8008091E1008F7E8093D6
:10F95000E1008091E2008F7E8093E2008091E200DE
:10F9600081608093E20080919401811104C08091B4
:10F97000E30087FF02C084E001C081E08EBB4FD16D
:10F980008091E10083FF21C08091E20083FF1DC0D0
:10F990008091E100877F8093E10082E08EBB10922E
:10F9A00094018091E1008E7F8093E1008091E200DC
:10F9B0008E7F8093E2008091E20080618093E2007C
:10F9C00042E060E080E0D3DE2AD1FF91EF91BF9169
:10F9D000AF919F918F917F916F915F914F913F91E7
:10F9E0002F910F900FBE0F901F901895EF92FF92DE
:10F9F0000F931F93CF93DF9300D0CDB7DEB7E6E927
:10FA0000F1E08091F100819381E0EE39F807C9F7C8
:10FA1000C1DB8091E80083FFEBC08091960190915B
:10FA20009701953009F46FC038F4913071F170F09E
:10FA3000933009F0DDC029C0983009F4ACC099308A
:10FA400009F4BBC0963009F0D3C085C0803809F4F2
:10FA5000CFC0823809F0CCC080919A0190919B016F
:10FA6000877099278093E9009091EB001092E9004C
:10FA70008091E800877F8093E80095FB882780F9D4
:10FA80008093F1001092F10091C0882319F0823028
:10FA900009F0AEC08F71823009F0AAC08091980140
:10FAA00081112BC080919A0190919B0187709927B9
:10FAB000009709F49DC08093E9002091EB0020FF9E
:10FAC0001CC020919701233021F48091EB008062CB
:10FAD00012C09091EB0090619093EB0021E030E038
:10FAE00001C0220F8A95EAF72093EA001092EA00FB
:10FAF0008091EB0088608093EB001092E900809188
:10FB0000E800877F56C0811173C000919801109161
:10FB100099010F771127E02EFFB6F8948091E80045
:10FB2000877F8093E80036DE8091E80080FFFCCF7D
:10FB3000EE2011F083E001C082E08EBB8091E300F3
:10FB40008078802B8093E3008091E300806880932D
:10FB5000E300FFBE4DC08058823008F049C0AE01BE
:10FB60004F5F5F4F60919A01809198019091990148
:10FB7000D1DD009709F43CC02091E800277F209355
:10FB8000E800BC0189819A814BD08091E8008B7795
:10FB90008093E8002DC0803859F58091E800877F78
:10FBA0008093E800809194018093F1008091E800B7
:10FBB0008E778093E800EEDD1BC0811119C0909113
:10FBC00098019230A8F48091E800877F8093E80044
:10FBD00090939401DFDD80919401811104C08091A4
:10FBE000E30087FF02C084E001C081E08EBBC6DA7B
:10FBF0008091E80083FF0AC08091EB0080628093CF
:10FC0000EB008091E800877F8093E8000F900F90D1
:10FC1000DF91CF911F910F91FF90EF90089508957C
:10FC200020919C0130919D012617370748F06115FE
:10FC3000710539F42091E8002E772093E80001C087
:10FC4000B901FC0120E02BC08EB38823D9F18530A7
:10FC5000D9F18091E80083FD33C08091E80082FDF6
:10FC600029C08091E80080FF1AC08091F200909135
:10FC7000F30006C021912093F100615071090196B3
:10FC80006115710519F088309105A0F321E00897FE
:10FC900009F020E08091E8008E778093E8006115FC
:10FCA000710591F62111D0CF05C08EB3882351F094
:10FCB000853051F08091E80082FFF7CF80E0089511
:10FCC00081E0089582E0089583E00895611571054B
:10FCD00029F42091E8002B772093E8009C0122C0B2
:10FCE0008EB3882389F1853049F18091E80083FD46
:10FCF00027C08091E80082FFF3CFF90107C080910F
:10FD0000F10081939F016150710939F09F01809149
:10FD1000F2009091F300892B91F78091E8008B77A6
:10FD20008093E80061157105D9F68091E80080FDA7
:10FD300009C08EB3882341F08530B9F783E0089578
:10FD400081E0089580E0089582E00895CF938EB316
:10FD5000882359F0C091E900C7701092E9008091A2
:10FD6000E80083FD43DEC093E900CF910895F9993F
:10FD7000FECF92BD81BDF89A992780B50895262FB0
:10FD8000F999FECF1FBA92BD81BD20BD0FB6F89480
:0EFD9000FA9AF99A0FBE01960895F894FFCFE3
:10FD9E00010000000000000826034100560052003A
:10FDAE002000430044004300200042006F006F001B
:10FDBE0074006C006F00610064006500720000004A
:10FDCE000403090409023E00020100803209040006
:10FDDE0000010202010005240010010424020405A2
:10FDEE0024060001070582030800FF090401000232
:10FDFE000A00000007050402100001070583021027
:10FE0E0000011201100102000008EB034A2001005C
:0CFE1E00000100014C55464143444300E4
:040000030000F00009
:00000001FF
